01 SCDCTB_AD_9999995_AX_TCPR_202021020220322021020120210201                                                                                                                                                                                                                                                                                                                                                                                    
02 577 BR SAO 0001TCPR    001067342021020120210304BRL00000000001367000001000000000000000013670D11201004            AZL0111                SALE       1133255321020127229491   AX                  R000002AMEX REDECARD                 AX2021020101       707                   1                  7179008                                                                                                                                     
02 577 BR SAO 0001TCPR    001067342021020120210201BRL00000000000033000001000000000000000000330D51401001            AZL0111                SALE       1133255321020127229491   AX                  R000003AMEX REDECARD                 AX2021020101       707                   1                  7179008                                                                                                                                     
02 577 BR SAO 0001TCPR    001067342021020120210201BRL00000000001400000001000000000000000014000C11299098            AZL0111                SALE       1133255321020127229491   AX                  R000004AMEX REDECARD                 AX2021020101       707                   1                  7179008                                                                                                                                     
02 577 BR SAO 0001TCPR    001067342021020120210304BRL00000000005164700001000000000000000051647D11201004            AZC0901                SALE       1133282521020128522567   AX                  R000005AMEX REDECARD                 AX2021020101       707                   1                  7179008                                                                                                                                     
02 577 BR SAO 0001TCPR    001067342021020120210201BRL00000000000124800001000000000000000001248D51401001            AZC0901                SALE       1133282521020128522567   AX                  R000006AMEX REDECARD                 AX2021020101       707                   1                  7179008                                                                                                                                     
02 577 BR SAO 0001TCPR    001067342021020120210201BRL00000000005289500001000000000000000052895C11299108            AZC0901                SALE       1133282521020128522567   AX                  R000007AMEX REDECARD                 AX2021020101       707                   1                  7179008                                                                                                                                     
02 577 BR SAO 0001TCPR    001067342021020120210304BRL00000000007811200001000000000000000078112D11201004            AZL0111                SALE       1143118321020144905084   AX                  R000008AMEX REDECARD                 AX2021020101       707                   1                  7179008                                                                                                                                     
99 000001000264                                                                                                                                                                                                                                                                                                                                                                                                                                
